:020000040800F2
:1000000008100020190100086F0000086F000008A8
:100010006F0000086F0000086F000008000000007B
:100020000000000000000000000000006F00000859
:100030006F000008000000006F0000086F0000085B
:1000400030B40EE00268436802440830DC0744BF65
:10005000A9F10104E31852F8045B43F8045B091F9B
:10006000F9D150F8041B0029ECD130BC7047FEE7F1
:1000700010B5074979441831064C7C44163404E025
:100080000A68081D114488470146A142F8D110BDF5
:100090002C0000003C0000008020064909688861AF
:1000A00005485FF080510268116080210068C160DE
:1000B00000207047040000200000002085FFFFFFA3
:1000C0000800000070000000000000200000000098
:1000D00000F00DF8002801D0FFF7CAFFAFF3008051
:1000E0000020AFF30080FFF7D7FF00F002F80120F7
:1000F000704700F001B800000746384600F002F8EB
:10010000FBE7000080B5AFF30080024A1100182021
:10011000ABBEFBE7260002000548014603B4684673
:1001200080F30988AFF30080AFF30080FFF7D0FFC2
:0C013000A5EDF5FE001C0140001002408F
:0400000508000119D5
:00000001FF
