:020000040800F2
:10000000181000209D020008A5020008A90200089F
:10001000AD020008B1020008B502000800000000AF
:10002000000000000000000000000000B90200080D
:10003000BD02000800000000C1020008C50200085F
:10004000C9020008CD020008D1020008D50200084C
:10005000D9020008DD020008E1020008E5020008FC
:10006000E9020008ED020008F1020008F5020008AC
:10007000F9020008FD02000801030008050300085A
:10008000090300080D030008110300080000000028
:100090000000000000000000000000003501000822
:1000A000190300081D0300082103000825030008A8
:1000B000290300082D030008310300083503000858
:1000C000390300083D030008410300084503000808
:1000D000490300084D0300085103000855030008B8
:1000E000590300085D030008610300086503000868
:1000F000690300086D030008000000000000000014
:1001000000000000000000007103000875030008F3
:10011000790300087D0300088103000885030008B7
:10012000890300088D030008910300089503000867
:10013000990300081A4801684969490609D5016808
:10014000496951F040010068416140201549096842
:10015000C860704740F281101349096888611348EC
:100160005FF000610268116040210068C1605FF0CB
:1001700080700C49096808604FF4C0600C49096838
:10018000C860074840210268D16000210268916080
:100190004021006801605FF4000006490860FEE746
:1001A0000400002008000020100000200C000020A7
:1001B0000000002000E100E030B40EE00268436877
:1001C00002440830DC0744BFA9F10104E31852F8E7
:1001D000045B43F8045B091FF9D150F8041B0029A4
:1001E000ECD130BC7047000010B507497944183194
:1001F000064C7C44163404E00A68081D1144884704
:100200000146A142F8D110BD08000000180000000E
:10021000A9FFFFFF14000000700000000000002094
:100220000000000000F00DF8002801D0FFF7DCFF0F
:10023000AFF300800020AFF30080FFF78BFF00F0EA
:1002400002F80120704700F001B800000746384668
:1002500000F002F8FBE7000080B5AFF30080024A2F
:1002600011001820ABBEFBE726000200054801463E
:1002700003B4684680F30988AFF30080AFF30080D1
:10028000FFF7D0FFA5EDF5FE00000140000401409E
:10029000001C0140002001400010024000480047BF
:1002A0006D020008FFF7FEBFFFF7FEBFFFF7FEBFBE
:1002B000FFF7FEBFFFF7FEBFFFF7FEBFFFF7FEBF72
:1002C000FFF7FEBFFFF7FEBFFFF7FEBFFFF7FEBF62
:1002D000FFF7FEBFFFF7FEBFFFF7FEBFFFF7FEBF52
:1002E000FFF7FEBFFFF7FEBFFFF7FEBFFFF7FEBF42
:1002F000FFF7FEBFFFF7FEBFFFF7FEBFFFF7FEBF32
:10030000FFF7FEBFFFF7FEBFFFF7FEBFFFF7FEBF21
:10031000FFF7FEBFFFF70EBFFFF7FEBFFFF7FEBF01
:10032000FFF7FEBFFFF7FEBFFFF7FEBFFFF7FEBF01
:10033000FFF7FEBFFFF7FEBFFFF7FEBFFFF7FEBFF1
:10034000FFF7FEBFFFF7FEBFFFF7FEBFFFF7FEBFE1
:10035000FFF7FEBFFFF7FEBFFFF7FEBFFFF7FEBFD1
:10036000FFF7FEBFFFF7FEBFFFF7FEBFFFF7FEBFC1
:10037000FFF7FEBFFFF7FEBFFFF7FEBFFFF7FEBFB1
:10038000FFF7FEBFFFF7FEBFFFF7FEBFFFF7FEBFA1
:0C039000FFF7FEBFFFF7FEBFFFF7FEBF48
:040000050800026D80
:00000001FF
