:020000040800F2
:100000000810002039010008170100081701000836
:100010001701000817010008170100080000000080
:1000200000000000000000000000000017010008B0
:100030001701000800000000170100081701000860
:1000400038B580200A49096888610A4C5FF0805001
:100050002168086080202168C860074D280000F0F2
:100060000DF800202168C860280000F007F8F1E7CB
:100070000400002000000020FFFF0F0000E0401EF1
:100080000028FCD1704730B40EE002684368024497
:100090000830DC0744BFA9F10104E31852F8045BFF
:1000A00043F8045B091FF9D150F8041B0029ECD177
:1000B00030BC704710B5074979441831064C7C4470
:1000C000163404E00A68081D114488470146A1421D
:1000D000F8D110BD0800000018000000ABFFFFFFC2
:1000E0000800000070000000000000200000000078
:1000F00000F00DF8002801D0FFF7DCFFAFF300801F
:100100000020AFF30080FFF79BFF00F002F8012012
:10011000704700F001B8FEE70746384600F002F8E5
:10012000FBE7000080B5AFF30080024A1100182001
:10013000ABBEFBE7260002000548014603B4684653
:1001400080F30988AFF30080AFF30080FFF7D0FFA2
:0C015000A5EDF5FE001C0140001002406F
:0400000508000139B5
:00000001FF
