:020000040800F2
:10000000101000201D030008250300082903000824
:100010002D0300083103000835030008000000002C
:10002000000000000000000000000000390300088C
:100030003D030008000000004103000845030008DC
:10004000490300084D030008510300085503000848
:10005000590300085D0300086103000865030008F8
:10006000690300086D0300087103000875030008A8
:10007000790300087D030008810300088503000858
:10008000890300088D0300089103000800000000A8
:1000900000000000000000000000000095030008C0
:1000A000990300089D030008A1030008A5030008A8
:1000B00035010008AD030008B1030008B5030008CE
:1000C000B9030008BD030008C1030008C503000808
:1000D000C9030008CD030008D1030008D5030008B8
:1000E000D9030008DD030008E1030008E503000868
:1000F000E9030008ED030008000000000000000014
:100100000000000000000000F1030008F5030008F3
:10011000F9030008FD0300080104000805040008B5
:10012000090400080D040008110400081504000863
:10013000190400083C480168096931F004010268AB
:1001400011613A490A68D26892F040020968CA60AF
:10015000002100684162704780B500F013F800F09C
:1001600019F800F021F800F02DF800F034F800F054
:1001700040F800F046F800F04CF85FF080502C4951
:100180000860FEE72B482C49026851602B49006843
:1001900001607047012027490968C86140F60F6077
:1001A00021490968886270471F484FF4FA61026864
:1001B000D162026851630168C96851F004010068A6
:1001C000C160704718484FF48071026811600021C7
:1001D00000684160704714480021026811621821CC
:1001E000026891610168096A51F0010100680162C9
:1001F00070470D48002102681161002100684162CA
:10020000704709480168096851F001010068016000
:10021000704780200749096888615FF08070034952
:1002200009680860704700000800002000000020F6
:1002300000E100E00400002002841F0082000101B0
:1002400030B40EE00268436802440830DC0744BF63
:10025000A9F10104E31852F8045B43F8045B091F99
:10026000F9D150F8041B0029ECD130BC70470000D4
:1002700010B5074979441831064C7C44163404E023
:100280000A68081D114488470146A142F8D110BDF3
:100290000800000018000000A9FFFFFF0C0000008C
:1002A00070000000000000200000000000F00DF8C9
:1002B000002801D0FFF7DCFFAFF300800020AFF390
:1002C0000080FFF749FF00F002F80120704700F0BE
:1002D00001B800000746384600F002F8FBE70000CE
:1002E00080B5AFF30080024A11001820ABBEFBE7D7
:1002F000260002000548014603B4684680F30988D9
:10030000AFF30080AFF30080FFF7D0FFA5EDF5FE5F
:10031000001C01400010024000000040004800475F
:10032000F5020008FFF7FEBFFFF7FEBFFFF7FEBFB5
:10033000FFF7FEBFFFF7FEBFFFF7FEBFFFF7FEBFF1
:10034000FFF7FEBFFFF7FEBFFFF7FEBFFFF7FEBFE1
:10035000FFF7FEBFFFF7FEBFFFF7FEBFFFF7FEBFD1
:10036000FFF7FEBFFFF7FEBFFFF7FEBFFFF7FEBFC1
:10037000FFF7FEBFFFF7FEBFFFF7FEBFFFF7FEBFB1
:10038000FFF7FEBFFFF7FEBFFFF7FEBFFFF7FEBFA1
:10039000FFF7FEBFFFF7FEBFFFF7FEBFFFF7FEBF91
:1003A000FFF7FEBFFFF7FEBFFFF7C4BEFFF7FEBFBC
:1003B000FFF7FEBFFFF7FEBFFFF7FEBFFFF7FEBF71
:1003C000FFF7FEBFFFF7FEBFFFF7FEBFFFF7FEBF61
:1003D000FFF7FEBFFFF7FEBFFFF7FEBFFFF7FEBF51
:1003E000FFF7FEBFFFF7FEBFFFF7FEBFFFF7FEBF41
:1003F000FFF7FEBFFFF7FEBFFFF7FEBFFFF7FEBF31
:10040000FFF7FEBFFFF7FEBFFFF7FEBFFFF7FEBF20
:0C041000FFF7FEBFFFF7FEBFFFF7FEBFC7
:04000005080002F5F8
:00000001FF
