:020000040800F2
:1000000018100020E9020008F1020008F5020008BB
:10001000F9020008FD0200080103000800000000CA
:1000200000000000000000000000000005030008C0
:1000300009030008000000000D0300081103000878
:1000400015030008190300081D0300082103000818
:1000500025030008290300083501000831030008C2
:1000600035030008390300083D0300084103000878
:1000700045030008490300084D0300085103000828
:1000800055030008590300085D0300080000000044
:100090000000000000000000000000005B010008FC
:1000A00065030008690300086D0300087103000878
:1000B00075030008790300087D0300088103000828
:1000C00085030008890300088D03000891030008D8
:1000D00095030008990300089D030008A103000888
:1000E000A5030008A9030008AD030008B103000838
:1000F000B5030008B903000800000000000000007C
:100100000000000000000000BD030008C10300085B
:10011000C5030008C9030008CD030008D103000887
:10012000D5030008D9030008DD030008E103000837
:10013000E50300082A4801684969C9070CD5016828
:10014000496951F001010068416126480168C968A8
:1001500051F080010068C160704721480168496919
:1001600049060CD50168496951F0400100684161B8
:100170001C480168C96891F040010068C16070477F
:1001800040F29110184909688861184808210268EE
:10019000116001210068C16015485FF000610268CC
:1001A000116040210068C1605FF088500D49096806
:1001B000086010480221026891604FF4C061006835
:1001C000C160074841210268D16000210268916046
:1001D000412100680160084808490860FEE7000006
:1001E000040000200C000020140000200800002063
:1001F00010000020000000204000800000E100E02E
:1002000030B40EE00268436802440830DC0744BFA3
:10021000A9F10104E31852F8045B43F8045B091FD9
:10022000F9D150F8041B0029ECD130BC7047000014
:1002300010B5074979441831064C7C44163404E063
:100240000A68081D114488470146A142F8D110BD33
:100250000800000018000000A9FFFFFF18000000C0
:1002600070000000000000200000000000F00DF809
:10027000002801D0FFF7DCFFAFF300800020AFF3D0
:100280000080FFF77DFF00F002F80120704700F0CA
:1002900001B800000746384600F002F8FBE700000E
:1002A00080B5AFF30080024A11001820ABBEFBE717
:1002B000260002000548014603B4684680F3098819
:1002C000AFF30080AFF30080FFF7D0FFA5EDF5FEA0
:1002D000000001400004014000100140001C0140EA
:1002E000002001400010024000480047B50200080D
:1002F000FFF7FEBFFFF7FEBFFFF7FEBFFFF7FEBF32
:10030000FFF7FEBFFFF7FEBFFFF7FEBFFFF7FEBF21
:10031000FFF7FEBFFFF7FEBFFFF7FEBFFFF7FEBF11
:10032000FFF7FEBFFFF7FEBFFFF7FEBFFFF702BFFD
:10033000FFF7FEBFFFF7FEBFFFF7FEBFFFF7FEBFF1
:10034000FFF7FEBFFFF7FEBFFFF7FEBFFFF7FEBFE1
:10035000FFF7FEBFFFF7FEBFFFF7FEBFFFF7FEBFD1
:10036000FFF7FBBEFFF7FEBFFFF7FEBFFFF7FEBFC5
:10037000FFF7FEBFFFF7FEBFFFF7FEBFFFF7FEBFB1
:10038000FFF7FEBFFFF7FEBFFFF7FEBFFFF7FEBFA1
:10039000FFF7FEBFFFF7FEBFFFF7FEBFFFF7FEBF91
:1003A000FFF7FEBFFFF7FEBFFFF7FEBFFFF7FEBF81
:1003B000FFF7FEBFFFF7FEBFFFF7FEBFFFF7FEBF71
:1003C000FFF7FEBFFFF7FEBFFFF7FEBFFFF7FEBF61
:1003D000FFF7FEBFFFF7FEBFFFF7FEBFFFF7FEBF51
:0803E000FFF7FEBFFFF7FEBFAF
:04000005080002B538
:00000001FF
