:020000040800F2
:100000001010002045010008BF000008BF000008D4
:10001000BF000008BF000008BF000008000000008B
:10002000000000000000000000000000BF00000809
:10003000BF00000800000000BF000008BF0000086B
:100040004FF4C0700F49096888610F485FF0805114
:100050000268116080210268D1600C495FF0006283
:100060000B681A6040220B68DA6002E080220368A5
:10007000DA600A6892685206F8D500220368DA60EE
:10008000F7E700BF08000020000000200400002067
:1000900030B40EE00268436802440830DC0744BF15
:1000A000A9F10104E31852F8045B43F8045B091F4B
:1000B000F9D150F8041B0029ECD130BC7047FEE7A1
:1000C00010B5074979441831064C7C44163404E0D5
:1000D0000A68081D114488470146A142F8D110BDA5
:1000E0000800000018000000A9FFFFFF0C0000003E
:1000F00070000000000000200000000000F00DF87B
:10010000002801D0FFF7DCFFAFF300800020AFF341
:100110000080FFF795FF00F002F80120704700F023
:1001200001B800000746384600F002F8FBE700007F
:1001300080B5AFF30080024A11001820ABBEFBE788
:10014000260002000548014603B4684680F309888A
:10015000AFF30080AFF30080FFF7D0FFA5EDF5FE11
:0C016000001C0140002001400010024083
:0400000508000145A9
:00000001FF
