:020000040800F2
:1000000010100020A10100081B0100081B010008BE
:100010001B0100081B0100081B0100080000000074
:100020000000000000000000000000001B010008AC
:100030001B010008000000001B0100081B01000854
:100040000A00D2B20A2A03D00A00D2B20D2A0AD17B
:1000500002681206FCD50A22426002681206FCD52C
:100060000D22426005E002681206FCD50A00D2B2F9
:1000700042600800C0B2704770B516481649026861
:1000800051601649026811600521026891614FF4C0
:100090009641134A126811605FF400310068C16133
:1000A000104C4FF49870216888602068806850F088
:1000B00008002168886042F208002168C8600A4D83
:1000C0000026A85D0028FBD0A95D2068FFF7B8FFD7
:1000D000761CF6E70400002002001F0080000101EA
:1000E0000000002008000020BC01000830B40EE031
:1000F0000268436802440830DC0744BFA9F10104E8
:10010000E31852F8045B43F8045B091FF9D150F877
:10011000041B0029ECD130BC7047FEE710B507493D
:1001200079441831064C7C44163404E00A68081DF2
:10013000114488470146A142F8D110BD08000000D3
:1001400018000000A9FFFFFF0C0000008000000065
:10015000000000200000000000F00DF8002801D091
:10016000FFF7DCFFAFF300800020AFF30080FFF764
:1001700083FF00F002F80120704700F001B8000092
:100180000746384600F002F8FBE7000080B5AFF301
:100190000080024A11001820ABBEFBE726000200D7
:1001A0000548014603B4684680F30988AFF3008030
:1001B000AFF30080FFF7D0FFA5EDF5FE48656C6C4E
:1001C0006F576F726C25640A000000000008014040
:0801D000001002400044004051
:04000005080001A14D
:00000001FF
