:020000040800F2
:1000000010100020A1020008A9020008AD0200089B
:10001000B1020008B5020008B902000800000000A3
:10002000000000000000000000000000BD02000809
:10003000C102000800000000C5020008C902000853
:10004000CD020008D1020008D5020008D90200083C
:10005000DD020008E1020008E5020008E9020008EC
:10006000ED020008F1020008F5020008F90200089C
:10007000FD02000801030008050300080903000849
:100080000D0300081103000815030008000000001C
:10009000000000000000000000000000190300083C
:1000A0001D03000821030008250300082903000898
:1000B0003501000831030008350300083903000842
:1000C0003D030008410300084503000849030008F8
:1000D0004D030008510300085503000859030008A8
:1000E0005D03000861030008650300086903000858
:1000F0006D0300087103000800000000000000000C
:1001000000000000000000007503000879030008EB
:100110007D030008810300088503000889030008A7
:100120008D03000891030008950300089903000857
:100130009D03000800201D49096808611C480168EA
:10014000C96891F040010068C160704719481A49B8
:100150000268516019490268116001210268D16189
:10016000124948F69F420B689A6240F2F3120B68FC
:10017000DA6200220B685A6200220B681A61802240
:10018000006882615FF08070094A12681060012087
:100190000A68D0605FF08050094A106001200A6848
:1001A0005061012009680860FEE700000800002097
:1001B000000000200400002042001F008000010118
:1001C00000E100E030B40EE0026843680244083009
:1001D000DC0744BFA9F10104E31852F8045B43F8BB
:1001E000045B091FF9D150F8041B0029ECD130BC85
:1001F0007047000010B5074979441831064C7C441B
:10020000163404E00A68081D114488470146A142DB
:10021000F8D110BD0800000018000000A9FFFFFF82
:100220000C00000070000000000000200000000032
:1002300000F00DF8002801D0FFF7DCFFAFF30080DD
:100240000020AFF30080FFF781FF00F002F80120EB
:10025000704700F001B800000746384600F002F889
:10026000FBE7000080B5AFF30080024A11001820C0
:10027000ABBEFBE7260002000548014603B4684612
:1002800080F30988AFF30080AFF30080FFF7D0FF61
:10029000A5EDF5FE001C01400010024000000040EA
:1002A0000048004779020008FFF7FEBFFFF7FEBFD6
:1002B000FFF7FEBFFFF7FEBFFFF7FEBFFFF7FEBF72
:1002C000FFF7FEBFFFF7FEBFFFF7FEBFFFF7FEBF62
:1002D000FFF7FEBFFFF7FEBFFFF7FEBFFFF7FEBF52
:1002E000FFF7FEBFFFF7FEBFFFF7FEBFFFF7FEBF42
:1002F000FFF7FEBFFFF7FEBFFFF7FEBFFFF7FEBF32
:10030000FFF7FEBFFFF7FEBFFFF7FEBFFFF7FEBF21
:10031000FFF7FEBFFFF7FEBFFFF7FEBFFFF7FEBF11
:10032000FFF7FEBFFFF7FEBFFFF7FEBFFFF702BFFD
:10033000FFF7FEBFFFF7FEBFFFF7FEBFFFF7FEBFF1
:10034000FFF7FEBFFFF7FEBFFFF7FEBFFFF7FEBFE1
:10035000FFF7FEBFFFF7FEBFFFF7FEBFFFF7FEBFD1
:10036000FFF7FEBFFFF7FEBFFFF7FEBFFFF7FEBFC1
:10037000FFF7FEBFFFF7FEBFFFF7FEBFFFF7FEBFB1
:10038000FFF7FEBFFFF7FEBFFFF7FEBFFFF7FEBFA1
:10039000FFF7FEBFFFF7FEBFFFF7FEBFFFF7FEBF91
:040000050800027974
:00000001FF
