:020000040800F2
:1000000010100020250300082D030008310300080C
:1000100035030008390300083D0300080000000014
:100020000000000000000000000000004103000884
:100030004503000800000000490300084D030008C4
:100040005103000855030008590300085D03000828
:100050006103000865030008690300086D030008D8
:100060007103000875030008790300087D03000888
:100070008103000885030008890300088D03000838
:100080009103000895030008990300080000000090
:100090000000000000000000000000009D030008B8
:1000A000A1030008A5030008A9030008AD03000888
:1000B00035010008B5030008B9030008BD030008B6
:1000C000C1030008C5030008C9030008CD030008E8
:1000D000D1030008D5030008D9030008DD03000898
:1000E000E1030008E5030008E9030008ED03000848
:1000F000F1030008F5030008000000000000000004
:100100000000000000000000F9030008FD030008E3
:100110000104000805040008090400080D04000893
:100120001104000815040008190400081D04000843
:100130002104000800203C49096808613B48016827
:10014000C96891F040010068C160704770B43848D8
:10015000384902685160384902681160012102681B
:10016000D161314948F69F420B689A6240F2F3121E
:100170000B68DA6200230C68636200230C68236159
:1001800080230468A361294B5FF080741D682C6094
:1001900001250E68F5605FF08055284E3560012519
:1001A0000E68756101250E6835600568AD6955F406
:1001B000807500688561224D2868046040202C68A5
:1001C000E0601868006850F080501C6820600024CF
:1001D000286880684006FBD4E4B2002C01D10124D9
:1001E00000E000242000C0B200280CD01868C068CD
:1001F00050F080001E68F060F9200E68F062002068
:100200000E6870620AE01868C06830F080001E68EE
:10021000F0600868C26200200E687062286880681A
:100220004006D5D4FAE700000C00002000000020B2
:100230000800002042001F008000010100E100E0F2
:100240000400002030B40EE0026843680244083025
:10025000DC0744BFA9F10104E31852F8045B43F83A
:10026000045B091FF9D150F8041B0029ECD130BC04
:100270007047000010B5074979441831064C7C449A
:10028000163404E00A68081D114488470146A1425B
:10029000F8D110BD0800000018000000A9FFFFFF02
:1002A00010000000700000000000002000000000AE
:1002B00000F00DF8002801D0FFF7DCFFAFF300805D
:1002C0000020AFF30080FFF741FF00F002F80120AB
:1002D000704700F001B800000746384600F002F809
:1002E000FBE7000080B5AFF30080024A1100182040
:1002F000ABBEFBE7260002000548014603B4684692
:1003000080F30988AFF30080AFF30080FFF7D0FFE0
:10031000A5EDF5FE001C0140002001400010024048
:100320000000004000480047F9020008FFF7FEBF48
:10033000FFF7FEBFFFF7FEBFFFF7FEBFFFF7FEBFF1
:10034000FFF7FEBFFFF7FEBFFFF7FEBFFFF7FEBFE1
:10035000FFF7FEBFFFF7FEBFFFF7FEBFFFF7FEBFD1
:10036000FFF7FEBFFFF7FEBFFFF7FEBFFFF7FEBFC1
:10037000FFF7FEBFFFF7FEBFFFF7FEBFFFF7FEBFB1
:10038000FFF7FEBFFFF7FEBFFFF7FEBFFFF7FEBFA1
:10039000FFF7FEBFFFF7FEBFFFF7FEBFFFF7FEBF91
:1003A000FFF7FEBFFFF7FEBFFFF7FEBFFFF7FEBF81
:1003B000FFF7C0BEFFF7FEBFFFF7FEBFFFF7FEBFB0
:1003C000FFF7FEBFFFF7FEBFFFF7FEBFFFF7FEBF61
:1003D000FFF7FEBFFFF7FEBFFFF7FEBFFFF7FEBF51
:1003E000FFF7FEBFFFF7FEBFFFF7FEBFFFF7FEBF41
:1003F000FFF7FEBFFFF7FEBFFFF7FEBFFFF7FEBF31
:10040000FFF7FEBFFFF7FEBFFFF7FEBFFFF7FEBF20
:10041000FFF7FEBFFFF7FEBFFFF7FEBFFFF7FEBF10
:04042000FFF7FEBF25
:04000005080002F9F4
:00000001FF
